:020000040000FA
:04000000FEEFFFF020
:020000040001F9
:10FE16000D6A0C6A0001ACEFFFF025ECFFF07EECFA
:10FE2600FFF019ECFFF050ECFFF01200610E390103
:10FE3600D96F000EDB6F000EDD6F030EDF6F000E55
:10FE4600DE6F1200000E3901C06F000EC16F000E8A
:10FE5600C26F000EC36F000EC46F000EC56F000E9A
:10FE6600C66F000EC76F12000B6E60002FF0F1FE1A
:10FE76003E01F88FF89DF881F8B144EFFFF046EFA8
:10FE8600FFF03FEFFFF0F0510A6E096AEF510924C7
:10FE9600076E000E0A20086E1200000E3E01DE6F8D
:10FEA600000EDF6F000EE06F000EE16F000EE46FD4
:10FEB600000EE56F000EEA6F000EEC6F000EF16F9C
:10FEC600000EF36F000EF46F000EF56F000EF66F66
:10FED600000EF76F000EF96F000EFA6F000EFB6F43
:10FEE600000EFC6F000EFD6F000EFE6F000EFF6F22
:10FEF600840EF86F1200000EBA6E000EBB6E000E76
:10FF0600BC6EC268C368FC0EC46EFC0E3A01606F1C
:10FF160050694069000E816F000E516F000E416FEF
:10FF2600000E616F000E5A6F000E5B6F000E6A6F57
:10FF3600000E6B6F000E426F000E526F000E626F66
:10FF4600436953696369446954696469080E846F37
:10FF5600120010ECFFF0BC82BC80000E37ECFFF004
:10FF660060001CF005F0600020F006F0010E37EC92
:10FF7600FFF060001CF003F0600020F004F0035076
:10FF8600055C016E04500658026E06BED6EFFFF001
:10FF9600100E055C0E0E0658D8B0D4EFFFF0D6EF63
:10FFA600FFF0E7EFFFF002BEE2EFFFF0025009E1DB
:10FFB600650E015CD8A0E2EFFFF0E4EFFFF0E7EF9B
:10FFC600FFF0BC90B0EFFFF004BEF5EFFFF0100EAF
:10FFD600035C0E0E0458D8B0F3EFFFF0F5EFFFF018
:10FFE600F8EFFFF0BC92B0EFFFF0BC80BC82B0EF40
:0AFFF600FFF0FEEFFFF00BEFFFF04D
:020000040020DA
:10000000FF0FFF0FFF0FFF0FFF0FFF0FFF0FFF0F80
:020000040030CA
:0A000000ECFFF7FF9FFFFFDFFFFF9B
:00000001FF
